{
  "contractName": "MyNFT",
  "abi": [
    {
      "inputs": [],
      "stateMutability": "nonpayable",
      "type": "constructor"
    },
    {
      "anonymous": false,
      "inputs": [
        {
          "indexed": true,
          "internalType": "address",
          "name": "owner",
          "type": "address"
        },
        {
          "indexed": true,
          "internalType": "address",
          "name": "approved",
          "type": "address"
        },
        {
          "indexed": true,
          "internalType": "uint256",
          "name": "tokenId",
          "type": "uint256"
        }
      ],
      "name": "Approval",
      "type": "event"
    },
    {
      "anonymous": false,
      "inputs": [
        {
          "indexed": true,
          "internalType": "address",
          "name": "owner",
          "type": "address"
        },
        {
          "indexed": true,
          "internalType": "address",
          "name": "operator",
          "type": "address"
        },
        {
          "indexed": false,
          "internalType": "bool",
          "name": "approved",
          "type": "bool"
        }
      ],
      "name": "ApprovalForAll",
      "type": "event"
    },
    {
      "anonymous": false,
      "inputs": [
        {
          "indexed": true,
          "internalType": "address",
          "name": "from",
          "type": "address"
        },
        {
          "indexed": true,
          "internalType": "address",
          "name": "to",
          "type": "address"
        },
        {
          "indexed": true,
          "internalType": "uint256",
          "name": "tokenId",
          "type": "uint256"
        }
      ],
      "name": "Transfer",
      "type": "event"
    },
    {
      "inputs": [
        {
          "internalType": "address",
          "name": "to",
          "type": "address"
        },
        {
          "internalType": "uint256",
          "name": "tokenId",
          "type": "uint256"
        }
      ],
      "name": "approve",
      "outputs": [],
      "stateMutability": "nonpayable",
      "type": "function"
    },
    {
      "inputs": [
        {
          "internalType": "address",
          "name": "owner",
          "type": "address"
        }
      ],
      "name": "balanceOf",
      "outputs": [
        {
          "internalType": "uint256",
          "name": "",
          "type": "uint256"
        }
      ],
      "stateMutability": "view",
      "type": "function",
      "constant": true
    },
    {
      "inputs": [],
      "name": "baseURI",
      "outputs": [
        {
          "internalType": "string",
          "name": "",
          "type": "string"
        }
      ],
      "stateMutability": "view",
      "type": "function",
      "constant": true
    },
    {
      "inputs": [
        {
          "internalType": "uint256",
          "name": "tokenId",
          "type": "uint256"
        }
      ],
      "name": "getApproved",
      "outputs": [
        {
          "internalType": "address",
          "name": "",
          "type": "address"
        }
      ],
      "stateMutability": "view",
      "type": "function",
      "constant": true
    },
    {
      "inputs": [
        {
          "internalType": "address",
          "name": "owner",
          "type": "address"
        },
        {
          "internalType": "address",
          "name": "operator",
          "type": "address"
        }
      ],
      "name": "isApprovedForAll",
      "outputs": [
        {
          "internalType": "bool",
          "name": "",
          "type": "bool"
        }
      ],
      "stateMutability": "view",
      "type": "function",
      "constant": true
    },
    {
      "inputs": [],
      "name": "name",
      "outputs": [
        {
          "internalType": "string",
          "name": "",
          "type": "string"
        }
      ],
      "stateMutability": "view",
      "type": "function",
      "constant": true
    },
    {
      "inputs": [
        {
          "internalType": "uint256",
          "name": "tokenId",
          "type": "uint256"
        }
      ],
      "name": "ownerOf",
      "outputs": [
        {
          "internalType": "address",
          "name": "",
          "type": "address"
        }
      ],
      "stateMutability": "view",
      "type": "function",
      "constant": true
    },
    {
      "inputs": [
        {
          "internalType": "address",
          "name": "from",
          "type": "address"
        },
        {
          "internalType": "address",
          "name": "to",
          "type": "address"
        },
        {
          "internalType": "uint256",
          "name": "tokenId",
          "type": "uint256"
        }
      ],
      "name": "safeTransferFrom",
      "outputs": [],
      "stateMutability": "nonpayable",
      "type": "function"
    },
    {
      "inputs": [
        {
          "internalType": "address",
          "name": "from",
          "type": "address"
        },
        {
          "internalType": "address",
          "name": "to",
          "type": "address"
        },
        {
          "internalType": "uint256",
          "name": "tokenId",
          "type": "uint256"
        },
        {
          "internalType": "bytes",
          "name": "_data",
          "type": "bytes"
        }
      ],
      "name": "safeTransferFrom",
      "outputs": [],
      "stateMutability": "nonpayable",
      "type": "function"
    },
    {
      "inputs": [
        {
          "internalType": "address",
          "name": "operator",
          "type": "address"
        },
        {
          "internalType": "bool",
          "name": "approved",
          "type": "bool"
        }
      ],
      "name": "setApprovalForAll",
      "outputs": [],
      "stateMutability": "nonpayable",
      "type": "function"
    },
    {
      "inputs": [
        {
          "internalType": "bytes4",
          "name": "interfaceId",
          "type": "bytes4"
        }
      ],
      "name": "supportsInterface",
      "outputs": [
        {
          "internalType": "bool",
          "name": "",
          "type": "bool"
        }
      ],
      "stateMutability": "view",
      "type": "function",
      "constant": true
    },
    {
      "inputs": [],
      "name": "symbol",
      "outputs": [
        {
          "internalType": "string",
          "name": "",
          "type": "string"
        }
      ],
      "stateMutability": "view",
      "type": "function",
      "constant": true
    },
    {
      "inputs": [
        {
          "internalType": "uint256",
          "name": "index",
          "type": "uint256"
        }
      ],
      "name": "tokenByIndex",
      "outputs": [
        {
          "internalType": "uint256",
          "name": "",
          "type": "uint256"
        }
      ],
      "stateMutability": "view",
      "type": "function",
      "constant": true
    },
    {
      "inputs": [
        {
          "internalType": "address",
          "name": "owner",
          "type": "address"
        },
        {
          "internalType": "uint256",
          "name": "index",
          "type": "uint256"
        }
      ],
      "name": "tokenOfOwnerByIndex",
      "outputs": [
        {
          "internalType": "uint256",
          "name": "",
          "type": "uint256"
        }
      ],
      "stateMutability": "view",
      "type": "function",
      "constant": true
    },
    {
      "inputs": [
        {
          "internalType": "uint256",
          "name": "tokenId",
          "type": "uint256"
        }
      ],
      "name": "tokenURI",
      "outputs": [
        {
          "internalType": "string",
          "name": "",
          "type": "string"
        }
      ],
      "stateMutability": "view",
      "type": "function",
      "constant": true
    },
    {
      "inputs": [],
      "name": "totalSupply",
      "outputs": [
        {
          "internalType": "uint256",
          "name": "",
          "type": "uint256"
        }
      ],
      "stateMutability": "view",
      "type": "function",
      "constant": true
    },
    {
      "inputs": [
        {
          "internalType": "address",
          "name": "from",
          "type": "address"
        },
        {
          "internalType": "address",
          "name": "to",
          "type": "address"
        },
        {
          "internalType": "uint256",
          "name": "tokenId",
          "type": "uint256"
        }
      ],
      "name": "transferFrom",
      "outputs": [],
      "stateMutability": "nonpayable",
      "type": "function"
    },
    {
      "inputs": [
        {
          "internalType": "address",
          "name": "recipient",
          "type": "address"
        },
        {
          "internalType": "string",
          "name": "tokenURI",
          "type": "string"
        }
      ],
      "name": "mintNFT",
      "outputs": [
        {
          "internalType": "uint256",
          "name": "",
          "type": "uint256"
        }
      ],
      "stateMutability": "nonpayable",
      "type": "function"
    }
  ],
  "bytecode": "0x60806040523480156200001157600080fd5b506040518060400160405280600581526020017f4d794e46540000000000000000000000000000000000000000000000000000008152506040518060400160405280600481526020017f4d4e465400000000000000000000000000000000000000000000000000000000815250620000966301ffc9a760e01b6200011860201b60201c565b8160069080519060200190620000ae929190620001f0565b508060079080519060200190620000c7929190620001f0565b50620000e06380ac58cd60e01b6200011860201b60201c565b620000f8635b5e139f60e01b6200011860201b60201c565b6200011063780e9d6360e01b6200011860201b60201c565b505062000388565b63ffffffff60e01b817bffffffffffffffffffffffffffffffffffffffffffffffffffffffff1916141562000184576040517f08c379a00000000000000000000000000000000000000000000000000000000081526004016200017b90620002c7565b60405180910390fd5b6001600080837bffffffffffffffffffffffffffffffffffffffffffffffffffffffff19167bffffffffffffffffffffffffffffffffffffffffffffffffffffffff1916815260200190815260200160002060006101000a81548160ff02191690831515021790555050565b828054620001fe90620002fa565b90600052602060002090601f0160209004810192826200022257600085556200026e565b82601f106200023d57805160ff19168380011785556200026e565b828001600101855582156200026e579182015b828111156200026d57825182559160200191906001019062000250565b5b5090506200027d919062000281565b5090565b5b808211156200029c57600081600090555060010162000282565b5090565b6000620002af601c83620002e9565b9150620002bc826200035f565b602082019050919050565b60006020820190508181036000830152620002e281620002a0565b9050919050565b600082825260208201905092915050565b600060028204905060018216806200031357607f821691505b602082108114156200032a576200032962000330565b5b50919050565b7f4e487b7100000000000000000000000000000000000000000000000000000000600052602260045260246000fd5b7f4552433136353a20696e76616c696420696e7465726661636520696400000000600082015250565b61349480620003986000396000f3fe608060405234801561001057600080fd5b50600436106101165760003560e01c80636352211e116100a2578063a22cb46511610071578063a22cb46514610307578063b88d4fde14610323578063c87b56dd1461033f578063e985e9c51461036f578063eacabe141461039f57610116565b80636352211e1461026b5780636c0360eb1461029b57806370a08231146102b957806395d89b41146102e957610116565b806318160ddd116100e957806318160ddd146101b557806323b872dd146101d35780632f745c59146101ef57806342842e0e1461021f5780634f6ccce71461023b57610116565b806301ffc9a71461011b57806306fdde031461014b578063081812fc14610169578063095ea7b314610199575b600080fd5b6101356004803603810190610130919061234a565b6103cf565b60405161014291906127ed565b60405180910390f35b610153610436565b6040516101609190612808565b60405180910390f35b610183600480360381019061017e919061239c565b6104c8565b6040516101909190612786565b60405180910390f35b6101b360048036038101906101ae919061230e565b61054d565b005b6101bd610665565b6040516101ca9190612a6a565b60405180910390f35b6101ed60048036038101906101e891906121b4565b610676565b005b6102096004803603810190610204919061230e565b6106d6565b6040516102169190612a6a565b60405180910390f35b610239600480360381019061023491906121b4565b610731565b005b6102556004803603810190610250919061239c565b610751565b6040516102629190612a6a565b60405180910390f35b6102856004803603810190610280919061239c565b610774565b6040516102929190612786565b60405180910390f35b6102a36107ab565b6040516102b09190612808565b60405180910390f35b6102d360048036038101906102ce919061214f565b61083d565b6040516102e09190612a6a565b60405180910390f35b6102f16108fc565b6040516102fe9190612808565b60405180910390f35b610321600480360381019061031c919061227e565b61098e565b005b61033d60048036038101906103389190612203565b610b0f565b005b6103596004803603810190610354919061239c565b610b71565b6040516103669190612808565b60405180910390f35b61038960048036038101906103849190612178565b610ce4565b60405161039691906127ed565b60405180910390f35b6103b960048036038101906103b491906122ba565b610d78565b6040516103c69190612a6a565b60405180910390f35b6000806000837bffffffffffffffffffffffffffffffffffffffffffffffffffffffff19167bffffffffffffffffffffffffffffffffffffffffffffffffffffffff1916815260200190815260200160002060009054906101000a900460ff169050919050565b60606006805461044590612d07565b80601f016020809104026020016040519081016040528092919081815260200182805461047190612d07565b80156104be5780601f10610493576101008083540402835291602001916104be565b820191906000526020600020905b8154815290600101906020018083116104a157829003601f168201915b5050505050905090565b60006104d382610db0565b610512576040517f08c379a00000000000000000000000000000000000000000000000000000000081526004016105099061298a565b60405180910390fd5b6004600083815260200190815260200160002060009054906101000a900473ffffffffffffffffffffffffffffffffffffffff169050919050565b600061055882610774565b90508073ffffffffffffffffffffffffffffffffffffffff168373ffffffffffffffffffffffffffffffffffffffff1614156105c9576040517f08c379a00000000000000000000000000000000000000000000000000000000081526004016105c090612a0a565b60405180910390fd5b8073ffffffffffffffffffffffffffffffffffffffff166105e8610dcd565b73ffffffffffffffffffffffffffffffffffffffff161480610617575061061681610611610dcd565b610ce4565b5b610656576040517f08c379a000000000000000000000000000000000000000000000000000000000815260040161064d9061290a565b60405180910390fd5b6106608383610dd5565b505050565b60006106716002610e8e565b905090565b610687610681610dcd565b82610ea3565b6106c6576040517f08c379a00000000000000000000000000000000000000000000000000000000081526004016106bd90612a2a565b60405180910390fd5b6106d1838383610f81565b505050565b600061072982600160008673ffffffffffffffffffffffffffffffffffffffff1673ffffffffffffffffffffffffffffffffffffffff16815260200190815260200160002061119890919063ffffffff16565b905092915050565b61074c83838360405180602001604052806000815250610b0f565b505050565b6000806107688360026111b290919063ffffffff16565b50905080915050919050565b60006107a4826040518060600160405280602981526020016134366029913960026111de9092919063ffffffff16565b9050919050565b6060600980546107ba90612d07565b80601f01602080910402602001604051908101604052809291908181526020018280546107e690612d07565b80156108335780601f1061080857610100808354040283529160200191610833565b820191906000526020600020905b81548152906001019060200180831161081657829003601f168201915b5050505050905090565b60008073ffffffffffffffffffffffffffffffffffffffff168273ffffffffffffffffffffffffffffffffffffffff1614156108ae576040517f08c379a00000000000000000000000000000000000000000000000000000000081526004016108a59061292a565b60405180910390fd5b6108f5600160008473ffffffffffffffffffffffffffffffffffffffff1673ffffffffffffffffffffffffffffffffffffffff1681526020019081526020016000206111fd565b9050919050565b60606007805461090b90612d07565b80601f016020809104026020016040519081016040528092919081815260200182805461093790612d07565b80156109845780601f1061095957610100808354040283529160200191610984565b820191906000526020600020905b81548152906001019060200180831161096757829003601f168201915b5050505050905090565b610996610dcd565b73ffffffffffffffffffffffffffffffffffffffff168273ffffffffffffffffffffffffffffffffffffffff161415610a04576040517f08c379a00000000000000000000000000000000000000000000000000000000081526004016109fb906128aa565b60405180910390fd5b8060056000610a11610dcd565b73ffffffffffffffffffffffffffffffffffffffff1673ffffffffffffffffffffffffffffffffffffffff16815260200190815260200160002060008473ffffffffffffffffffffffffffffffffffffffff1673ffffffffffffffffffffffffffffffffffffffff16815260200190815260200160002060006101000a81548160ff0219169083151502179055508173ffffffffffffffffffffffffffffffffffffffff16610abe610dcd565b73ffffffffffffffffffffffffffffffffffffffff167f17307eab39ab6107e8899845ad3d59bd9653f200f220920489ca2b5937696c3183604051610b0391906127ed565b60405180910390a35050565b610b20610b1a610dcd565b83610ea3565b610b5f576040517f08c379a0000000000000000000000000000000000000000000000000000000008152600401610b5690612a2a565b60405180910390fd5b610b6b84848484611212565b50505050565b6060610b7c82610db0565b610bbb576040517f08c379a0000000000000000000000000000000000000000000000000000000008152600401610bb2906129ea565b60405180910390fd5b6000600860008481526020019081526020016000208054610bdb90612d07565b80601f0160208091040260200160405190810160405280929190818152602001828054610c0790612d07565b8015610c545780601f10610c2957610100808354040283529160200191610c54565b820191906000526020600020905b815481529060010190602001808311610c3757829003601f168201915b505050505090506000610c656107ab565b9050600081511415610c7b578192505050610cdf565b600082511115610cb0578082604051602001610c98929190612762565b60405160208183030381529060405292505050610cdf565b80610cba8561126e565b604051602001610ccb929190612762565b604051602081830303815290604052925050505b919050565b6000600560008473ffffffffffffffffffffffffffffffffffffffff1673ffffffffffffffffffffffffffffffffffffffff16815260200190815260200160002060008373ffffffffffffffffffffffffffffffffffffffff1673ffffffffffffffffffffffffffffffffffffffff16815260200190815260200160002060009054906101000a900460ff16905092915050565b6000610d84600a61142d565b6000610d90600a61144c565b9050610d9c848261145a565b610da681846115e8565b8091505092915050565b6000610dc682600261165c90919063ffffffff16565b9050919050565b600033905090565b816004600083815260200190815260200160002060006101000a81548173ffffffffffffffffffffffffffffffffffffffff021916908373ffffffffffffffffffffffffffffffffffffffff160217905550808273ffffffffffffffffffffffffffffffffffffffff16610e4883610774565b73ffffffffffffffffffffffffffffffffffffffff167f8c5be1e5ebec7d5bd14f71427d1e84f3dd0314c0f7b2291e5b200ac8c7c3b92560405160405180910390a45050565b6000610e9c82600001611676565b9050919050565b6000610eae82610db0565b610eed576040517f08c379a0000000000000000000000000000000000000000000000000000000008152600401610ee4906128ea565b60405180910390fd5b6000610ef883610774565b90508073ffffffffffffffffffffffffffffffffffffffff168473ffffffffffffffffffffffffffffffffffffffff161480610f6757508373ffffffffffffffffffffffffffffffffffffffff16610f4f846104c8565b73ffffffffffffffffffffffffffffffffffffffff16145b80610f785750610f778185610ce4565b5b91505092915050565b8273ffffffffffffffffffffffffffffffffffffffff16610fa182610774565b73ffffffffffffffffffffffffffffffffffffffff1614610ff7576040517f08c379a0000000000000000000000000000000000000000000000000000000008152600401610fee906129ca565b60405180910390fd5b600073ffffffffffffffffffffffffffffffffffffffff168273ffffffffffffffffffffffffffffffffffffffff161415611067576040517f08c379a000000000000000000000000000000000000000000000000000000000815260040161105e9061288a565b60405180910390fd5b611072838383611687565b61107d600082610dd5565b6110ce81600160008673ffffffffffffffffffffffffffffffffffffffff1673ffffffffffffffffffffffffffffffffffffffff16815260200190815260200160002061168c90919063ffffffff16565b5061112081600160008573ffffffffffffffffffffffffffffffffffffffff1673ffffffffffffffffffffffffffffffffffffffff1681526020019081526020016000206116a690919063ffffffff16565b50611137818360026116c09092919063ffffffff16565b50808273ffffffffffffffffffffffffffffffffffffffff168473ffffffffffffffffffffffffffffffffffffffff167fddf252ad1be2c89b69c2b068fc378daa952ba7f163c4a11628f55a4df523b3ef60405160405180910390a4505050565b60006111a783600001836116f5565b60001c905092915050565b6000806000806111c5866000018661178f565b915091508160001c8160001c9350935050509250929050565b60006111f1846000018460001b8461183f565b60001c90509392505050565b600061120b82600001611906565b9050919050565b61121d848484610f81565b61122984848484611917565b611268576040517f08c379a000000000000000000000000000000000000000000000000000000000815260040161125f9061284a565b60405180910390fd5b50505050565b606060008214156112b6576040518060400160405280600181526020017f30000000000000000000000000000000000000000000000000000000000000008152509050611428565b600082905060005b600082146112e85780806112d190612d6a565b915050600a826112e19190612bb0565b91506112be565b60008167ffffffffffffffff81111561132a577f4e487b7100000000000000000000000000000000000000000000000000000000600052604160045260246000fd5b6040519080825280601f01601f19166020018201604052801561135c5781602001600182028036833780820191505090505b509050600060018361136e9190612be1565b90508593505b6000841461142057600a846113899190612db3565b60306113959190612b5a565b60f81b8282806113a490612cdd565b9350815181106113dd577f4e487b7100000000000000000000000000000000000000000000000000000000600052603260045260246000fd5b60200101907effffffffffffffffffffffffffffffffffffffffffffffffffffffffffffff1916908160001a905350600a846114199190612bb0565b9350611374565b819450505050505b919050565b60018160000160008282546114429190612b5a565b9250508190555050565b600081600001549050919050565b600073ffffffffffffffffffffffffffffffffffffffff168273ffffffffffffffffffffffffffffffffffffffff1614156114ca576040517f08c379a00000000000000000000000000000000000000000000000000000000081526004016114c19061296a565b60405180910390fd5b6114d381610db0565b15611513576040517f08c379a000000000000000000000000000000000000000000000000000000000815260040161150a9061286a565b60405180910390fd5b61151f60008383611687565b61157081600160008573ffffffffffffffffffffffffffffffffffffffff1673ffffffffffffffffffffffffffffffffffffffff1681526020019081526020016000206116a690919063ffffffff16565b50611587818360026116c09092919063ffffffff16565b50808273ffffffffffffffffffffffffffffffffffffffff16600073ffffffffffffffffffffffffffffffffffffffff167fddf252ad1be2c89b69c2b068fc378daa952ba7f163c4a11628f55a4df523b3ef60405160405180910390a45050565b6115f182610db0565b611630576040517f08c379a0000000000000000000000000000000000000000000000000000000008152600401611627906129aa565b60405180910390fd5b80600860008481526020019081526020016000209080519060200190611657929190611f73565b505050565b600061166e836000018360001b611a7b565b905092915050565b600081600001805490509050919050565b505050565b600061169e836000018360001b611a9e565b905092915050565b60006116b8836000018360001b611c28565b905092915050565b60006116ec846000018460001b8473ffffffffffffffffffffffffffffffffffffffff1660001b611c98565b90509392505050565b600081836000018054905011611740576040517f08c379a00000000000000000000000000000000000000000000000000000000081526004016117379061282a565b60405180910390fd5b82600001828154811061177c577f4e487b7100000000000000000000000000000000000000000000000000000000600052603260045260246000fd5b9060005260206000200154905092915050565b600080828460000180549050116117db576040517f08c379a00000000000000000000000000000000000000000000000000000000081526004016117d29061294a565b60405180910390fd5b6000846000018481548110611819577f4e487b7100000000000000000000000000000000000000000000000000000000600052603260045260246000fd5b906000526020600020906002020190508060000154816001015492509250509250929050565b600080846001016000858152602001908152602001600020549050600081141583906118a1576040517f08c379a00000000000000000000000000000000000000000000000000000000081526004016118989190612808565b60405180910390fd5b50846000016001826118b39190612be1565b815481106118ea577f4e487b7100000000000000000000000000000000000000000000000000000000600052603260045260246000fd5b9060005260206000209060020201600101549150509392505050565b600081600001805490509050919050565b60006119388473ffffffffffffffffffffffffffffffffffffffff16611daa565b6119455760019050611a73565b6000611a0c63150b7a0260e01b61195a610dcd565b88878760405160240161197094939291906127a1565b604051602081830303815290604052907bffffffffffffffffffffffffffffffffffffffffffffffffffffffff19166020820180517bffffffffffffffffffffffffffffffffffffffffffffffffffffffff8381831617835250505050604051806060016040528060328152602001613404603291398773ffffffffffffffffffffffffffffffffffffffff16611dbd9092919063ffffffff16565b9050600081806020019051810190611a249190612373565b905063150b7a0260e01b7bffffffffffffffffffffffffffffffffffffffffffffffffffffffff1916817bffffffffffffffffffffffffffffffffffffffffffffffffffffffff191614925050505b949350505050565b600080836001016000848152602001908152602001600020541415905092915050565b60008083600101600084815260200190815260200160002054905060008114611c1c576000600182611ad09190612be1565b9050600060018660000180549050611ae89190612be1565b90506000866000018281548110611b28577f4e487b7100000000000000000000000000000000000000000000000000000000600052603260045260246000fd5b9060005260206000200154905080876000018481548110611b72577f4e487b7100000000000000000000000000000000000000000000000000000000600052603260045260246000fd5b9060005260206000200181905550600183611b8d9190612b5a565b8760010160008381526020019081526020016000208190555086600001805480611be0577f4e487b7100000000000000000000000000000000000000000000000000000000600052603160045260246000fd5b60019003818190600052602060002001600090559055866001016000878152602001908152602001600020600090556001945050505050611c22565b60009150505b92915050565b6000611c348383611dd5565b611c8d578260000182908060018154018082558091505060019003906000526020600020016000909190919091505582600001805490508360010160008481526020019081526020016000208190555060019050611c92565b600090505b92915050565b6000808460010160008581526020019081526020016000205490506000811415611d3f57846000016040518060400160405280868152602001858152509080600181540180825580915050600190039060005260206000209060020201600090919091909150600082015181600001556020820151816001015550508460000180549050856001016000868152602001908152602001600020819055506001915050611da3565b8285600001600183611d519190612be1565b81548110611d88577f4e487b7100000000000000000000000000000000000000000000000000000000600052603260045260246000fd5b90600052602060002090600202016001018190555060009150505b9392505050565b600080823b905060008111915050919050565b6060611dcc8484600085611df8565b90509392505050565b600080836001016000848152602001908152602001600020541415905092915050565b606082471015611e3d576040517f08c379a0000000000000000000000000000000000000000000000000000000008152600401611e34906128ca565b60405180910390fd5b611e4685611daa565b611e85576040517f08c379a0000000000000000000000000000000000000000000000000000000008152600401611e7c90612a4a565b60405180910390fd5b6000808673ffffffffffffffffffffffffffffffffffffffff168587604051611eae919061274b565b60006040518083038185875af1925050503d8060008114611eeb576040519150601f19603f3d011682016040523d82523d6000602084013e611ef0565b606091505b5091509150611f00828286611f0c565b92505050949350505050565b60608315611f1c57829050611f6c565b600083511115611f2f5782518084602001fd5b816040517f08c379a0000000000000000000000000000000000000000000000000000000008152600401611f639190612808565b60405180910390fd5b9392505050565b828054611f7f90612d07565b90600052602060002090601f016020900481019282611fa15760008555611fe8565b82601f10611fba57805160ff1916838001178555611fe8565b82800160010185558215611fe8579182015b82811115611fe7578251825591602001919060010190611fcc565b5b509050611ff59190611ff9565b5090565b5b80821115612012576000816000905550600101611ffa565b5090565b600061202961202484612aaa565b612a85565b90508281526020810184848401111561204157600080fd5b61204c848285612c9b565b509392505050565b600061206761206284612adb565b612a85565b90508281526020810184848401111561207f57600080fd5b61208a848285612c9b565b509392505050565b6000813590506120a1816133a7565b92915050565b6000813590506120b6816133be565b92915050565b6000813590506120cb816133d5565b92915050565b6000815190506120e0816133d5565b92915050565b600082601f8301126120f757600080fd5b8135612107848260208601612016565b91505092915050565b600082601f83011261212157600080fd5b8135612131848260208601612054565b91505092915050565b600081359050612149816133ec565b92915050565b60006020828403121561216157600080fd5b600061216f84828501612092565b91505092915050565b6000806040838503121561218b57600080fd5b600061219985828601612092565b92505060206121aa85828601612092565b9150509250929050565b6000806000606084860312156121c957600080fd5b60006121d786828701612092565b93505060206121e886828701612092565b92505060406121f98682870161213a565b9150509250925092565b6000806000806080858703121561221957600080fd5b600061222787828801612092565b945050602061223887828801612092565b93505060406122498782880161213a565b925050606085013567ffffffffffffffff81111561226657600080fd5b612272878288016120e6565b91505092959194509250565b6000806040838503121561229157600080fd5b600061229f85828601612092565b92505060206122b0858286016120a7565b9150509250929050565b600080604083850312156122cd57600080fd5b60006122db85828601612092565b925050602083013567ffffffffffffffff8111156122f857600080fd5b61230485828601612110565b9150509250929050565b6000806040838503121561232157600080fd5b600061232f85828601612092565b92505060206123408582860161213a565b9150509250929050565b60006020828403121561235c57600080fd5b600061236a848285016120bc565b91505092915050565b60006020828403121561238557600080fd5b6000612393848285016120d1565b91505092915050565b6000602082840312156123ae57600080fd5b60006123bc8482850161213a565b91505092915050565b6123ce81612c27565b82525050565b6123dd81612c15565b82525050565b6123ec81612c39565b82525050565b60006123fd82612b0c565b6124078185612b22565b9350612417818560208601612caa565b61242081612ea0565b840191505092915050565b600061243682612b0c565b6124408185612b33565b9350612450818560208601612caa565b80840191505092915050565b600061246782612b17565b6124718185612b3e565b9350612481818560208601612caa565b61248a81612ea0565b840191505092915050565b60006124a082612b17565b6124aa8185612b4f565b93506124ba818560208601612caa565b80840191505092915050565b60006124d3602283612b3e565b91506124de82612eb1565b604082019050919050565b60006124f6603283612b3e565b915061250182612f00565b604082019050919050565b6000612519601c83612b3e565b915061252482612f4f565b602082019050919050565b600061253c602483612b3e565b915061254782612f78565b604082019050919050565b600061255f601983612b3e565b915061256a82612fc7565b602082019050919050565b6000612582602683612b3e565b915061258d82612ff0565b604082019050919050565b60006125a5602c83612b3e565b91506125b08261303f565b604082019050919050565b60006125c8603883612b3e565b91506125d38261308e565b604082019050919050565b60006125eb602a83612b3e565b91506125f6826130dd565b604082019050919050565b600061260e602283612b3e565b91506126198261312c565b604082019050919050565b6000612631602083612b3e565b915061263c8261317b565b602082019050919050565b6000612654602c83612b3e565b915061265f826131a4565b604082019050919050565b6000612677602c83612b3e565b9150612682826131f3565b604082019050919050565b600061269a602983612b3e565b91506126a582613242565b604082019050919050565b60006126bd602f83612b3e565b91506126c882613291565b604082019050919050565b60006126e0602183612b3e565b91506126eb826132e0565b604082019050919050565b6000612703603183612b3e565b915061270e8261332f565b604082019050919050565b6000612726601d83612b3e565b91506127318261337e565b602082019050919050565b61274581612c91565b82525050565b6000612757828461242b565b915081905092915050565b600061276e8285612495565b915061277a8284612495565b91508190509392505050565b600060208201905061279b60008301846123d4565b92915050565b60006080820190506127b660008301876123c5565b6127c360208301866123d4565b6127d0604083018561273c565b81810360608301526127e281846123f2565b905095945050505050565b600060208201905061280260008301846123e3565b92915050565b60006020820190508181036000830152612822818461245c565b905092915050565b60006020820190508181036000830152612843816124c6565b9050919050565b60006020820190508181036000830152612863816124e9565b9050919050565b600060208201905081810360008301526128838161250c565b9050919050565b600060208201905081810360008301526128a38161252f565b9050919050565b600060208201905081810360008301526128c381612552565b9050919050565b600060208201905081810360008301526128e381612575565b9050919050565b6000602082019050818103600083015261290381612598565b9050919050565b60006020820190508181036000830152612923816125bb565b9050919050565b60006020820190508181036000830152612943816125de565b9050919050565b6000602082019050818103600083015261296381612601565b9050919050565b6000602082019050818103600083015261298381612624565b9050919050565b600060208201905081810360008301526129a381612647565b9050919050565b600060208201905081810360008301526129c38161266a565b9050919050565b600060208201905081810360008301526129e38161268d565b9050919050565b60006020820190508181036000830152612a03816126b0565b9050919050565b60006020820190508181036000830152612a23816126d3565b9050919050565b60006020820190508181036000830152612a43816126f6565b9050919050565b60006020820190508181036000830152612a6381612719565b9050919050565b6000602082019050612a7f600083018461273c565b92915050565b6000612a8f612aa0565b9050612a9b8282612d39565b919050565b6000604051905090565b600067ffffffffffffffff821115612ac557612ac4612e71565b5b612ace82612ea0565b9050602081019050919050565b600067ffffffffffffffff821115612af657612af5612e71565b5b612aff82612ea0565b9050602081019050919050565b600081519050919050565b600081519050919050565b600082825260208201905092915050565b600081905092915050565b600082825260208201905092915050565b600081905092915050565b6000612b6582612c91565b9150612b7083612c91565b9250827fffffffffffffffffffffffffffffffffffffffffffffffffffffffffffffffff03821115612ba557612ba4612de4565b5b828201905092915050565b6000612bbb82612c91565b9150612bc683612c91565b925082612bd657612bd5612e13565b5b828204905092915050565b6000612bec82612c91565b9150612bf783612c91565b925082821015612c0a57612c09612de4565b5b828203905092915050565b6000612c2082612c71565b9050919050565b6000612c3282612c71565b9050919050565b60008115159050919050565b60007fffffffff0000000000000000000000000000000000000000000000000000000082169050919050565b600073ffffffffffffffffffffffffffffffffffffffff82169050919050565b6000819050919050565b82818337600083830152505050565b60005b83811015612cc8578082015181840152602081019050612cad565b83811115612cd7576000848401525b50505050565b6000612ce882612c91565b91506000821415612cfc57612cfb612de4565b5b600182039050919050565b60006002820490506001821680612d1f57607f821691505b60208210811415612d3357612d32612e42565b5b50919050565b612d4282612ea0565b810181811067ffffffffffffffff82111715612d6157612d60612e71565b5b80604052505050565b6000612d7582612c91565b91507fffffffffffffffffffffffffffffffffffffffffffffffffffffffffffffffff821415612da857612da7612de4565b5b600182019050919050565b6000612dbe82612c91565b9150612dc983612c91565b925082612dd957612dd8612e13565b5b828206905092915050565b7f4e487b7100000000000000000000000000000000000000000000000000000000600052601160045260246000fd5b7f4e487b7100000000000000000000000000000000000000000000000000000000600052601260045260246000fd5b7f4e487b7100000000000000000000000000000000000000000000000000000000600052602260045260246000fd5b7f4e487b7100000000000000000000000000000000000000000000000000000000600052604160045260246000fd5b6000601f19601f8301169050919050565b7f456e756d657261626c655365743a20696e646578206f7574206f6620626f756e60008201527f6473000000000000000000000000000000000000000000000000000000000000602082015250565b7f4552433732313a207472616e7366657220746f206e6f6e20455243373231526560008201527f63656976657220696d706c656d656e7465720000000000000000000000000000602082015250565b7f4552433732313a20746f6b656e20616c7265616479206d696e74656400000000600082015250565b7f4552433732313a207472616e7366657220746f20746865207a65726f2061646460008201527f7265737300000000000000000000000000000000000000000000000000000000602082015250565b7f4552433732313a20617070726f766520746f2063616c6c657200000000000000600082015250565b7f416464726573733a20696e73756666696369656e742062616c616e636520666f60008201527f722063616c6c0000000000000000000000000000000000000000000000000000602082015250565b7f4552433732313a206f70657261746f7220717565727920666f72206e6f6e657860008201527f697374656e7420746f6b656e0000000000000000000000000000000000000000602082015250565b7f4552433732313a20617070726f76652063616c6c6572206973206e6f74206f7760008201527f6e6572206e6f7220617070726f76656420666f7220616c6c0000000000000000602082015250565b7f4552433732313a2062616c616e636520717565727920666f7220746865207a6560008201527f726f206164647265737300000000000000000000000000000000000000000000602082015250565b7f456e756d657261626c654d61703a20696e646578206f7574206f6620626f756e60008201527f6473000000000000000000000000000000000000000000000000000000000000602082015250565b7f4552433732313a206d696e7420746f20746865207a65726f2061646472657373600082015250565b7f4552433732313a20617070726f76656420717565727920666f72206e6f6e657860008201527f697374656e7420746f6b656e0000000000000000000000000000000000000000602082015250565b7f4552433732314d657461646174613a2055524920736574206f66206e6f6e657860008201527f697374656e7420746f6b656e0000000000000000000000000000000000000000602082015250565b7f4552433732313a207472616e73666572206f6620746f6b656e2074686174206960008201527f73206e6f74206f776e0000000000000000000000000000000000000000000000602082015250565b7f4552433732314d657461646174613a2055524920717565727920666f72206e6f60008201527f6e6578697374656e7420746f6b656e0000000000000000000000000000000000602082015250565b7f4552433732313a20617070726f76616c20746f2063757272656e74206f776e6560008201527f7200000000000000000000000000000000000000000000000000000000000000602082015250565b7f4552433732313a207472616e736665722063616c6c6572206973206e6f74206f60008201527f776e6572206e6f7220617070726f766564000000000000000000000000000000602082015250565b7f416464726573733a2063616c6c20746f206e6f6e2d636f6e7472616374000000600082015250565b6133b081612c15565b81146133bb57600080fd5b50565b6133c781612c39565b81146133d257600080fd5b50565b6133de81612c45565b81146133e957600080fd5b50565b6133f581612c91565b811461340057600080fd5b5056fe4552433732313a207472616e7366657220746f206e6f6e20455243373231526563656976657220696d706c656d656e7465724552433732313a206f776e657220717565727920666f72206e6f6e6578697374656e7420746f6b656ea2646970667358221220c50bcf585eb3d2f43446072d589f99b0c84902f34f707070e0f8afc3ee0f38c564736f6c63430008040033",
  "immutableReferences": {},
  "source": "// SPDX-License-Identifier: MIT\npragma solidity ^0.8.0;\n\nimport \"@openzeppelin/contracts/token/ERC721/ERC721.sol\";\nimport \"@openzeppelin/contracts/utils/Counters.sol\";\n\ncontract MyNFT is ERC721 {\n    using Counters for Counters.Counter;\n    Counters.Counter private _tokenIds;\n\n    constructor() ERC721(\"MyNFT\", \"MNFT\") {}\n\n    function mintNFT(address recipient, string memory tokenURI) public returns (uint256) {\n        _tokenIds.increment();\n\n        uint256 newItemId = _tokenIds.current();\n        _mint(recipient, newItemId);\n        _setTokenURI(newItemId, tokenURI);\n\n        return newItemId;\n    }\n}\n",
  "sourcePath": "/Users/anush/NFTProject/contracts/MyNFT.sol",
  "compiler": {
    "name": "solc",
    "version": "0.8.4+commit.c7e474f2.Emscripten.clang"
  },
  "schemaVersion": "3.4.13",
  "updatedAt": "2023-05-06T10:24:06.321Z",
  "networkType": "ethereum",
  "devdoc": {
    "kind": "dev",
    "methods": {
      "approve(address,uint256)": {
        "details": "See {IERC721-approve}."
      },
      "balanceOf(address)": {
        "details": "See {IERC721-balanceOf}."
      },
      "baseURI()": {
        "details": "Returns the base URI set via {_setBaseURI}. This will be automatically added as a prefix in {tokenURI} to each token's URI, or to the token ID if no specific URI is set for that token ID."
      },
      "getApproved(uint256)": {
        "details": "See {IERC721-getApproved}."
      },
      "isApprovedForAll(address,address)": {
        "details": "See {IERC721-isApprovedForAll}."
      },
      "name()": {
        "details": "See {IERC721Metadata-name}."
      },
      "ownerOf(uint256)": {
        "details": "See {IERC721-ownerOf}."
      },
      "safeTransferFrom(address,address,uint256)": {
        "details": "See {IERC721-safeTransferFrom}."
      },
      "safeTransferFrom(address,address,uint256,bytes)": {
        "details": "See {IERC721-safeTransferFrom}."
      },
      "setApprovalForAll(address,bool)": {
        "details": "See {IERC721-setApprovalForAll}."
      },
      "supportsInterface(bytes4)": {
        "details": "See {IERC165-supportsInterface}. Time complexity O(1), guaranteed to always use less than 30 000 gas."
      },
      "symbol()": {
        "details": "See {IERC721Metadata-symbol}."
      },
      "tokenByIndex(uint256)": {
        "details": "See {IERC721Enumerable-tokenByIndex}."
      },
      "tokenOfOwnerByIndex(address,uint256)": {
        "details": "See {IERC721Enumerable-tokenOfOwnerByIndex}."
      },
      "tokenURI(uint256)": {
        "details": "See {IERC721Metadata-tokenURI}."
      },
      "totalSupply()": {
        "details": "See {IERC721Enumerable-totalSupply}."
      },
      "transferFrom(address,address,uint256)": {
        "details": "See {IERC721-transferFrom}."
      }
    },
    "version": 1
  },
  "userdoc": {
    "kind": "user",
    "methods": {},
    "version": 1
  }
}